{
  "contractName": "AuctionEngine",
  "abi": [
    {
      "constant": true,
      "inputs": [
        {
          "name": "",
          "type": "uint256"
        }
      ],
      "name": "auctions",
      "outputs": [
        {
          "name": "assetAddress",
          "type": "address"
        },
        {
          "name": "assetId",
          "type": "uint256"
        },
        {
          "name": "creator",
          "type": "address"
        },
        {
          "name": "startTime",
          "type": "uint256"
        },
        {
          "name": "duration",
          "type": "uint256"
        },
        {
          "name": "currentBidAmount",
          "type": "uint256"
        },
        {
          "name": "currentBidOwner",
          "type": "address"
        },
        {
          "name": "bidCount",
          "type": "uint256"
        },
        {
          "name": "assetClaimed",
          "type": "bool"
        },
        {
          "name": "winningBidClaimed",
          "type": "bool"
        }
      ],
      "payable": false,
      "stateMutability": "view",
      "type": "function"
    },
    {
      "anonymous": false,
      "inputs": [
        {
          "indexed": false,
          "name": "_index",
          "type": "uint256"
        },
        {
          "indexed": false,
          "name": "_creator",
          "type": "address"
        },
        {
          "indexed": false,
          "name": "_asset",
          "type": "address"
        },
        {
          "indexed": false,
          "name": "_assetId",
          "type": "uint256"
        }
      ],
      "name": "AuctionCreated",
      "type": "event"
    },
    {
      "anonymous": false,
      "inputs": [
        {
          "indexed": false,
          "name": "_index",
          "type": "uint256"
        },
        {
          "indexed": false,
          "name": "_bidder",
          "type": "address"
        },
        {
          "indexed": false,
          "name": "amount",
          "type": "uint256"
        }
      ],
      "name": "AuctionBid",
      "type": "event"
    },
    {
      "anonymous": false,
      "inputs": [
        {
          "indexed": false,
          "name": "auctionIndex",
          "type": "uint256"
        },
        {
          "indexed": false,
          "name": "claimer",
          "type": "address"
        }
      ],
      "name": "ClaimAsset",
      "type": "event"
    },
    {
      "anonymous": false,
      "inputs": [
        {
          "indexed": false,
          "name": "auctionIndex",
          "type": "uint256"
        },
        {
          "indexed": false,
          "name": "claimer",
          "type": "address"
        }
      ],
      "name": "ClaimWinningBid",
      "type": "event"
    },
    {
      "constant": false,
      "inputs": [
        {
          "name": "_assetAddress",
          "type": "address"
        },
        {
          "name": "_assetId",
          "type": "uint256"
        },
        {
          "name": "_startPrice",
          "type": "uint256"
        },
        {
          "name": "_startTime",
          "type": "uint256"
        },
        {
          "name": "_duration",
          "type": "uint256"
        }
      ],
      "name": "createAuction",
      "outputs": [
        {
          "name": "",
          "type": "uint256"
        }
      ],
      "payable": false,
      "stateMutability": "nonpayable",
      "type": "function"
    },
    {
      "constant": false,
      "inputs": [
        {
          "name": "auctionIndex",
          "type": "uint256"
        }
      ],
      "name": "bid",
      "outputs": [
        {
          "name": "",
          "type": "bool"
        }
      ],
      "payable": true,
      "stateMutability": "payable",
      "type": "function"
    },
    {
      "constant": true,
      "inputs": [],
      "name": "getTotalAuctions",
      "outputs": [
        {
          "name": "",
          "type": "uint256"
        }
      ],
      "payable": false,
      "stateMutability": "view",
      "type": "function"
    },
    {
      "constant": true,
      "inputs": [
        {
          "name": "index",
          "type": "uint256"
        }
      ],
      "name": "isActive",
      "outputs": [
        {
          "name": "",
          "type": "bool"
        }
      ],
      "payable": false,
      "stateMutability": "view",
      "type": "function"
    },
    {
      "constant": true,
      "inputs": [
        {
          "name": "index",
          "type": "uint256"
        }
      ],
      "name": "isFinished",
      "outputs": [
        {
          "name": "",
          "type": "bool"
        }
      ],
      "payable": false,
      "stateMutability": "view",
      "type": "function"
    },
    {
      "constant": true,
      "inputs": [
        {
          "name": "index",
          "type": "uint256"
        }
      ],
      "name": "getStatus",
      "outputs": [
        {
          "name": "",
          "type": "uint8"
        }
      ],
      "payable": false,
      "stateMutability": "view",
      "type": "function"
    },
    {
      "constant": true,
      "inputs": [
        {
          "name": "auctionIndex",
          "type": "uint256"
        }
      ],
      "name": "getCurrentBidOwner",
      "outputs": [
        {
          "name": "",
          "type": "address"
        }
      ],
      "payable": false,
      "stateMutability": "view",
      "type": "function"
    },
    {
      "constant": true,
      "inputs": [
        {
          "name": "auctionIndex",
          "type": "uint256"
        }
      ],
      "name": "getCurrentBidAmount",
      "outputs": [
        {
          "name": "",
          "type": "uint256"
        }
      ],
      "payable": false,
      "stateMutability": "view",
      "type": "function"
    },
    {
      "constant": true,
      "inputs": [
        {
          "name": "auctionIndex",
          "type": "uint256"
        }
      ],
      "name": "getBidCount",
      "outputs": [
        {
          "name": "",
          "type": "uint256"
        }
      ],
      "payable": false,
      "stateMutability": "view",
      "type": "function"
    },
    {
      "constant": true,
      "inputs": [
        {
          "name": "auctionIndex",
          "type": "uint256"
        }
      ],
      "name": "getWinner",
      "outputs": [
        {
          "name": "",
          "type": "address"
        }
      ],
      "payable": false,
      "stateMutability": "view",
      "type": "function"
    },
    {
      "constant": false,
      "inputs": [
        {
          "name": "auctionIndex",
          "type": "uint256"
        }
      ],
      "name": "claimTokens",
      "outputs": [],
      "payable": false,
      "stateMutability": "nonpayable",
      "type": "function"
    },
    {
      "constant": false,
      "inputs": [
        {
          "name": "auctionIndex",
          "type": "uint256"
        }
      ],
      "name": "reclaimAsset",
      "outputs": [],
      "payable": false,
      "stateMutability": "nonpayable",
      "type": "function"
    },
    {
      "constant": false,
      "inputs": [
        {
          "name": "auctionIndex",
          "type": "uint256"
        }
      ],
      "name": "claimAsset",
      "outputs": [],
      "payable": false,
      "stateMutability": "nonpayable",
      "type": "function"
    }
  ],
  "bytecode": "0x608060405234801561001057600080fd5b5061179d806100206000396000f3006080604052600436106100d0576000357c0100000000000000000000000000000000000000000000000000000000900463ffffffff1680633ef14cc8146100d55780634129b2c914610100578063454a2ab31461016d57806346e04a2f146101a5578063571a26a0146101d25780635c622a0e146102de5780635cbd59c31461032d5780636975846a1461035a578063744d34111461039b57806382afd23b146103dc57806386b4607314610421578063961c9ae41461048e578063d3c2a5921461050d578063e8ba65091461053a575b600080fd5b3480156100e157600080fd5b506100ea61057f565b6040518082815260200191505060405180910390f35b34801561010c57600080fd5b5061012b6004803603810190808035906020019092919050505061058b565b604051808273ffffffffffffffffffffffffffffffffffffffff1673ffffffffffffffffffffffffffffffffffffffff16815260200191505060405180910390f35b61018b600480360381019080803590602001909291905050506105e9565b604051808215151515815260200191505060405180910390f35b3480156101b157600080fd5b506101d060048036038101908080359060200190929190505050610864565b005b3480156101de57600080fd5b506101fd60048036038101908080359060200190929190505050610a16565b604051808b73ffffffffffffffffffffffffffffffffffffffff1673ffffffffffffffffffffffffffffffffffffffff1681526020018a81526020018973ffffffffffffffffffffffffffffffffffffffff1673ffffffffffffffffffffffffffffffffffffffff1681526020018881526020018781526020018681526020018573ffffffffffffffffffffffffffffffffffffffff1673ffffffffffffffffffffffffffffffffffffffff16815260200184815260200183151515158152602001821515151581526020019a505050505050505050505060405180910390f35b3480156102ea57600080fd5b5061030960048036038101908080359060200190929190505050610af3565b6040518082600281111561031957fe5b60ff16815260200191505060405180910390f35b34801561033957600080fd5b5061035860048036038101908080359060200190929190505050610b60565b005b34801561036657600080fd5b5061038560048036038101908080359060200190929190505050610e5c565b6040518082815260200191505060405180910390f35b3480156103a757600080fd5b506103c660048036038101908080359060200190929190505050610e85565b6040518082815260200191505060405180910390f35b3480156103e857600080fd5b5061040760048036038101908080359060200190929190505050610eae565b604051808215151515815260200191505060405180910390f35b34801561042d57600080fd5b5061044c60048036038101908080359060200190929190505050610ed9565b604051808273ffffffffffffffffffffffffffffffffffffffff1673ffffffffffffffffffffffffffffffffffffffff16815260200191505060405180910390f35b34801561049a57600080fd5b506104f7600480360381019080803573ffffffffffffffffffffffffffffffffffffffff16906020019092919080359060200190929190803590602001909291908035906020019092919080359060200190929190505050610f22565b6040518082815260200191505060405180910390f35b34801561051957600080fd5b50610538600480360381019080803590602001909291905050506114bd565b005b34801561054657600080fd5b5061056560048036038101908080359060200190929190505050611691565b604051808215151515815260200191505060405180910390f35b60008080549050905090565b600061059682611691565b15156105a157600080fd5b6000828154811015156105b057fe5b906000526020600020906009020160060160009054906101000a900473ffffffffffffffffffffffffffffffffffffffff169050919050565b6000806000806000858154811015156105fe57fe5b90600052602060002090600902019250600073ffffffffffffffffffffffffffffffffffffffff168360020160009054906101000a900473ffffffffffffffffffffffffffffffffffffffff1673ffffffffffffffffffffffffffffffffffffffff161415151561066e57600080fd5b61067785610eae565b151561068257600080fd5b34915082600501548211156108575760008360050154141580156106f75750600073ffffffffffffffffffffffffffffffffffffffff168360060160009054906101000a900473ffffffffffffffffffffffffffffffffffffffff1673ffffffffffffffffffffffffffffffffffffffff1614155b1561076f578260060160009054906101000a900473ffffffffffffffffffffffffffffffffffffffff1690508073ffffffffffffffffffffffffffffffffffffffff166108fc84600501549081150290604051600060405180830381858888f1935050505015801561076d573d6000803e3d6000fd5b505b818360050181905550338360060160006101000a81548173ffffffffffffffffffffffffffffffffffffffff021916908373ffffffffffffffffffffffffffffffffffffffff1602179055506107d3600184600701546116bb90919063ffffffff16565b83600701819055507fb8d756f2d1da4663767eb4d559780ace84f2f65a421a60ddcb47e8b2e5d2fd26853384604051808481526020018373ffffffffffffffffffffffffffffffffffffffff1673ffffffffffffffffffffffffffffffffffffffff168152602001828152602001935050505060405180910390a16001935061085c565b600093505b505050919050565b600061086f82611691565b151561087a57600080fd5b60008281548110151561088957fe5b906000526020600020906009020190503373ffffffffffffffffffffffffffffffffffffffff168160020160009054906101000a900473ffffffffffffffffffffffffffffffffffffffff1673ffffffffffffffffffffffffffffffffffffffff161415156108f757600080fd5b600015158160080160019054906101000a900460ff16151514151561091b57600080fd5b3373ffffffffffffffffffffffffffffffffffffffff166108fc82600501549081150290604051600060405180830381858888f19350505050158015610965573d6000803e3d6000fd5b5060018160080160016101000a81548160ff0219169083151502179055507f9286b95473c8e5cb9c31d9825ce88dcf4a9078f63315cadad9999c4c6cfce47a828260020160009054906101000a900473ffffffffffffffffffffffffffffffffffffffff16604051808381526020018273ffffffffffffffffffffffffffffffffffffffff1673ffffffffffffffffffffffffffffffffffffffff1681526020019250505060405180910390a15050565b600081815481101515610a2557fe5b90600052602060002090600902016000915090508060000160009054906101000a900473ffffffffffffffffffffffffffffffffffffffff16908060010154908060020160009054906101000a900473ffffffffffffffffffffffffffffffffffffffff16908060030154908060040154908060050154908060060160009054906101000a900473ffffffffffffffffffffffffffffffffffffffff16908060070154908060080160009054906101000a900460ff16908060080160019054906101000a900460ff1690508a565b600080600083815481101515610b0557fe5b906000526020600020906009020190508060030154421015610b2a5760009150610b5a565b610b45816004015482600301546116bb90919063ffffffff16565b421015610b555760019150610b5a565b600291505b50919050565b610b686116d7565b6000610b7383611691565b1515610b7e57600080fd5b600083815481101515610b8d57fe5b906000526020600020906009020161014060405190810160405290816000820160009054906101000a900473ffffffffffffffffffffffffffffffffffffffff1673ffffffffffffffffffffffffffffffffffffffff1673ffffffffffffffffffffffffffffffffffffffff168152602001600182015481526020016002820160009054906101000a900473ffffffffffffffffffffffffffffffffffffffff1673ffffffffffffffffffffffffffffffffffffffff1673ffffffffffffffffffffffffffffffffffffffff1681526020016003820154815260200160048201548152602001600582015481526020016006820160009054906101000a900473ffffffffffffffffffffffffffffffffffffffff1673ffffffffffffffffffffffffffffffffffffffff1673ffffffffffffffffffffffffffffffffffffffff168152602001600782015481526020016008820160009054906101000a900460ff161515151581526020016008820160019054906101000a900460ff16151515158152505091503373ffffffffffffffffffffffffffffffffffffffff16826040015173ffffffffffffffffffffffffffffffffffffffff16141515610d5257600080fd5b600073ffffffffffffffffffffffffffffffffffffffff168260c0015173ffffffffffffffffffffffffffffffffffffffff16141515610d9157600080fd5b816000015190508073ffffffffffffffffffffffffffffffffffffffff1663a9059cbb3384602001516040518363ffffffff167c0100000000000000000000000000000000000000000000000000000000028152600401808373ffffffffffffffffffffffffffffffffffffffff1673ffffffffffffffffffffffffffffffffffffffff16815260200182815260200192505050600060405180830381600087803b158015610e3f57600080fd5b505af1158015610e53573d6000803e3d6000fd5b50505050505050565b60008082815481101515610e6c57fe5b9060005260206000209060090201600501549050919050565b60008082815481101515610e9557fe5b9060005260206000209060090201600701549050919050565b600060016002811115610ebd57fe5b610ec683610af3565b6002811115610ed157fe5b149050919050565b60008082815481101515610ee957fe5b906000526020600020906009020160060160009054906101000a900473ffffffffffffffffffffffffffffffffffffffff169050919050565b6000610f2c6116d7565b60003373ffffffffffffffffffffffffffffffffffffffff168873ffffffffffffffffffffffffffffffffffffffff16636352211e896040518263ffffffff167c010000000000000000000000000000000000000000000000000000000002815260040180828152602001915050602060405180830381600087803b158015610fb457600080fd5b505af1158015610fc8573d6000803e3d6000fd5b505050506040513d6020811015610fde57600080fd5b810190808051906020019092919050505073ffffffffffffffffffffffffffffffffffffffff1614151561101157600080fd5b3073ffffffffffffffffffffffffffffffffffffffff168873ffffffffffffffffffffffffffffffffffffffff1663081812fc896040518263ffffffff167c010000000000000000000000000000000000000000000000000000000002815260040180828152602001915050602060405180830381600087803b15801561109757600080fd5b505af11580156110ab573d6000803e3d6000fd5b505050506040513d60208110156110c157600080fd5b810190808051906020019092919050505073ffffffffffffffffffffffffffffffffffffffff161415156110f457600080fd5b8773ffffffffffffffffffffffffffffffffffffffff166323b872dd33308a6040518463ffffffff167c0100000000000000000000000000000000000000000000000000000000028152600401808473ffffffffffffffffffffffffffffffffffffffff1673ffffffffffffffffffffffffffffffffffffffff1681526020018373ffffffffffffffffffffffffffffffffffffffff1673ffffffffffffffffffffffffffffffffffffffff1681526020018281526020019350505050600060405180830381600087803b1580156111cb57600080fd5b505af11580156111df573d6000803e3d6000fd5b5050505060008514156111f0574294505b610140604051908101604052808973ffffffffffffffffffffffffffffffffffffffff1681526020018881526020013373ffffffffffffffffffffffffffffffffffffffff168152602001868152602001858152602001878152602001600073ffffffffffffffffffffffffffffffffffffffff168152602001600081526020016000151581526020016000151581525091506000829080600181540180825580915050906001820390600052602060002090600902016000909192909190915060008201518160000160006101000a81548173ffffffffffffffffffffffffffffffffffffffff021916908373ffffffffffffffffffffffffffffffffffffffff1602179055506020820151816001015560408201518160020160006101000a81548173ffffffffffffffffffffffffffffffffffffffff021916908373ffffffffffffffffffffffffffffffffffffffff160217905550606082015181600301556080820151816004015560a0820151816005015560c08201518160060160006101000a81548173ffffffffffffffffffffffffffffffffffffffff021916908373ffffffffffffffffffffffffffffffffffffffff16021790555060e082015181600701556101008201518160080160006101000a81548160ff0219169083151502179055506101208201518160080160016101000a81548160ff02191690831515021790555050505060016000805490500390507f8777bed2a899ba8843de663a1f6ed1c48d071cc8bde08e2488b59c00c1993f7681338a8a604051808581526020018473ffffffffffffffffffffffffffffffffffffffff1673ffffffffffffffffffffffffffffffffffffffff1681526020018373ffffffffffffffffffffffffffffffffffffffff1673ffffffffffffffffffffffffffffffffffffffff16815260200182815260200194505050505060405180910390a1809250505095945050505050565b60008060006114cb84611691565b15156114d657600080fd5b6000848154811015156114e557fe5b906000526020600020906009020192506114fe8461058b565b91503373ffffffffffffffffffffffffffffffffffffffff168273ffffffffffffffffffffffffffffffffffffffff1614151561153a57600080fd5b8260000160009054906101000a900473ffffffffffffffffffffffffffffffffffffffff1690508073ffffffffffffffffffffffffffffffffffffffff1663a9059cbb8385600101546040518363ffffffff167c0100000000000000000000000000000000000000000000000000000000028152600401808373ffffffffffffffffffffffffffffffffffffffff1673ffffffffffffffffffffffffffffffffffffffff16815260200182815260200192505050600060405180830381600087803b15801561160857600080fd5b505af115801561161c573d6000803e3d6000fd5b505050507fb40ad49671cc1653d81702ecac60a7d623f8f0d24b2493666a51062bfb4457588483604051808381526020018273ffffffffffffffffffffffffffffffffffffffff1673ffffffffffffffffffffffffffffffffffffffff1681526020019250505060405180910390a150505050565b600060028081111561169f57fe5b6116a883610af3565b60028111156116b357fe5b149050919050565b600081830190508281101515156116ce57fe5b80905092915050565b61014060405190810160405280600073ffffffffffffffffffffffffffffffffffffffff16815260200160008152602001600073ffffffffffffffffffffffffffffffffffffffff168152602001600081526020016000815260200160008152602001600073ffffffffffffffffffffffffffffffffffffffff1681526020016000815260200160001515815260200160001515815250905600a165627a7a72305820a30450a2d876fee994601a7e6ffa910a73b347b70f491abad8202aa2c2581c530029",
  "source": "pragma solidity ^0.4.24;\n\nimport \"./SafeMath.sol\";\nimport \"./AddressUtils.sol\";\nimport \"./IERC721.sol\";\n\n\ncontract AuctionEngine {\n    using SafeMath for uint256;\n    using AddressUtils for address;\n\n    event AuctionCreated(uint256 _index, address _creator, address _asset, uint256 _assetId);\n    event AuctionBid(uint256 _index, address _bidder, uint256 amount);\n    event ClaimAsset(uint256 auctionIndex, address claimer);\n    event ClaimWinningBid(uint256 auctionIndex, address claimer);\n\n    enum Status{ pending, active, finished }\n    struct Auction {\n        address assetAddress;\n        uint256 assetId;\n\n        address creator;\n\n        uint256 startTime;\n        uint256 duration;\n        uint256 currentBidAmount;\n        address currentBidOwner;\n        uint256 bidCount;\n        \n        bool assetClaimed;\n        bool winningBidClaimed;\n        \n    }\n    Auction[] public auctions;\n\n    function createAuction(IERC721 _assetAddress,\n                           uint256 _assetId,\n                           \n                           uint256 _startPrice,\n                           uint256 _startTime,\n                           uint256 _duration) public returns (uint256) {\n\n        require(_assetAddress.ownerOf(_assetId) == msg.sender);\n        require(_assetAddress.getApproved(_assetId) == address(this));\n\n        _assetAddress.transferFrom(msg.sender, address(this), _assetId);\n\n        if (_startTime == 0) { _startTime = block.timestamp; }\n\n        Auction memory auction = Auction({\n            creator: msg.sender,\n            assetAddress: address(_assetAddress),\n            assetId: _assetId,\n            startTime: _startTime,\n            duration: _duration,\n            currentBidAmount: _startPrice,\n            currentBidOwner: address(0),\n            bidCount: 0,\n            assetClaimed:false,\n            winningBidClaimed:false\n        });\n        auctions.push(auction);\n        \n        uint256 index = auctions.length-1;\n\n        emit AuctionCreated(index, msg.sender, address(_assetAddress), _assetId);\n\n        return index;\n    }\n\n    function bid(uint256 auctionIndex) public payable returns (bool) {\n        Auction storage auction = auctions[auctionIndex];\n        require(auction.creator != address(0));\n        require(isActive(auctionIndex));\n\n        uint256 amount = msg.value;\n\n        if (amount > auction.currentBidAmount) {\n            if (auction.currentBidAmount != 0 && auction.currentBidOwner!= address(0)) {\n                // return funds to the previuos bidder\n                address to = auction.currentBidOwner;\n                to.transfer(                    \n                    auction.currentBidAmount\n                );\n            }\n            // register new bidder\n            auction.currentBidAmount = amount;\n            auction.currentBidOwner = msg.sender;\n            auction.bidCount = auction.bidCount.add(1);\n\n            emit AuctionBid(auctionIndex, msg.sender, amount);\n            return true;\n        }\n        return false;\n    }\n\n    function getTotalAuctions() public view returns (uint256) { return auctions.length; }\n\n    function isActive(uint256 index) public view returns (bool) { return getStatus(index) == Status.active; }\n\n    function isFinished(uint256 index) public view returns (bool) { return getStatus(index) == Status.finished; }\n\n    function getStatus(uint256 index) public view returns (Status) {\n        Auction storage auction = auctions[index];\n        if (block.timestamp < auction.startTime) {\n            return Status.pending;\n        } else if (block.timestamp < auction.startTime.add(auction.duration)) {\n            return Status.active;\n        } else {\n            return Status.finished;\n        }\n    }\n\n    function getCurrentBidOwner(uint256 auctionIndex) public view returns (address) { return auctions[auctionIndex].currentBidOwner; }\n\n    function getCurrentBidAmount(uint256 auctionIndex) public view returns (uint256) { return auctions[auctionIndex].currentBidAmount; }\n\n    function getBidCount(uint256 auctionIndex) public view returns (uint256) { return auctions[auctionIndex].bidCount; }\n\n    function getWinner(uint256 auctionIndex) public view returns (address) {\n        require(isFinished(auctionIndex));\n        return auctions[auctionIndex].currentBidOwner;\n    }\n\n    function claimTokens(uint256 auctionIndex) public {\n        require(isFinished(auctionIndex));\n        Auction storage auction = auctions[auctionIndex];\n\n        require(auction.creator == msg.sender);\n        require(auction.winningBidClaimed == false);\n        \n        msg.sender.transfer(auction.currentBidAmount);\n        auction.winningBidClaimed=true;\n\n        emit ClaimWinningBid(auctionIndex, auction.creator);\n    }\n    \n    function reclaimAsset(uint256 auctionIndex) public {\n        require(isFinished(auctionIndex));\n        Auction memory auction = auctions[auctionIndex];\n        \n        require(auction.creator == msg.sender);\n        require(auction.currentBidOwner == address(0));\n        \n        IERC721 token = IERC721(auction.assetAddress);\n        token.transfer(msg.sender, auction.assetId);\n    }\n\n    function claimAsset(uint256 auctionIndex) public {\n        require(isFinished(auctionIndex));\n        Auction storage auction = auctions[auctionIndex];\n\n        address winner = getWinner(auctionIndex);\n        require(winner == msg.sender);\n\n        IERC721 asset = IERC721(auction.assetAddress);\n        asset.transfer(winner, auction.assetId);\n\n        emit ClaimAsset(auctionIndex, winner);\n    }\n\n}",
  "sourcePath": "/home/rudresh/Workspace/Blockdegree/erc721-token/contracts/Auction/Auction.sol",
  "compiler": {
    "name": "solc",
    "version": "0.4.24+commit.e67f0147.Emscripten.clang"
  },
  "schemaVersion": "3.2.3",
  "updatedAt": "2021-05-03T07:22:31.764Z",
  "devdoc": {
    "methods": {}
  },
  "userdoc": {
    "methods": {}
  }
}